{
  "_format": "hh-sol-artifact-1",
  "contractName": "Post",
  "sourceName": "contracts/Post.sol",
  "abi": [
    {
      "inputs": [
        {
          "internalType": "address",
          "name": "semaphoreAddress",
          "type": "address"
        },
        {
          "internalType": "uint256",
          "name": "_groupId",
          "type": "uint256"
        }
      ],
      "stateMutability": "nonpayable",
      "type": "constructor"
    },
    {
      "anonymous": false,
      "inputs": [
        {
          "indexed": true,
          "internalType": "address",
          "name": "previousOwner",
          "type": "address"
        },
        {
          "indexed": true,
          "internalType": "address",
          "name": "newOwner",
          "type": "address"
        }
      ],
      "name": "OwnershipTransferred",
      "type": "event"
    },
    {
      "anonymous": false,
      "inputs": [
        {
          "indexed": true,
          "internalType": "uint256",
          "name": "signal",
          "type": "uint256"
        },
        {
          "indexed": true,
          "internalType": "string",
          "name": "arweaveId",
          "type": "string"
        }
      ],
      "name": "PostSent",
      "type": "event"
    },
    {
      "inputs": [],
      "name": "groupId",
      "outputs": [
        {
          "internalType": "uint256",
          "name": "",
          "type": "uint256"
        }
      ],
      "stateMutability": "view",
      "type": "function"
    },
    {
      "inputs": [
        {
          "internalType": "uint256",
          "name": "identityCommitment",
          "type": "uint256"
        }
      ],
      "name": "joinGroup",
      "outputs": [],
      "stateMutability": "nonpayable",
      "type": "function"
    },
    {
      "inputs": [],
      "name": "owner",
      "outputs": [
        {
          "internalType": "address",
          "name": "",
          "type": "address"
        }
      ],
      "stateMutability": "view",
      "type": "function"
    },
    {
      "inputs": [],
      "name": "renounceOwnership",
      "outputs": [],
      "stateMutability": "nonpayable",
      "type": "function"
    },
    {
      "inputs": [],
      "name": "semaphore",
      "outputs": [
        {
          "internalType": "contract ISemaphore",
          "name": "",
          "type": "address"
        }
      ],
      "stateMutability": "view",
      "type": "function"
    },
    {
      "inputs": [
        {
          "internalType": "uint256",
          "name": "merkleTreeRoot",
          "type": "uint256"
        },
        {
          "internalType": "uint256",
          "name": "nullifierHash",
          "type": "uint256"
        },
        {
          "internalType": "uint256[8]",
          "name": "proof",
          "type": "uint256[8]"
        },
        {
          "internalType": "string",
          "name": "arweaveId",
          "type": "string"
        }
      ],
      "name": "sendPost",
      "outputs": [],
      "stateMutability": "nonpayable",
      "type": "function"
    },
    {
      "inputs": [
        {
          "internalType": "uint256",
          "name": "",
          "type": "uint256"
        }
      ],
      "name": "signalToArweaveTxs",
      "outputs": [
        {
          "internalType": "string",
          "name": "",
          "type": "string"
        }
      ],
      "stateMutability": "view",
      "type": "function"
    },
    {
      "inputs": [
        {
          "internalType": "address",
          "name": "newOwner",
          "type": "address"
        }
      ],
      "name": "transferOwnership",
      "outputs": [],
      "stateMutability": "nonpayable",
      "type": "function"
    }
  ],
  "bytecode": "0x60806040523480156200001157600080fd5b506040516200120c3803806200120c833981810160405281019062000037919062000239565b620000576200004b6200013f60201b60201c565b6200014760201b60201c565b81600160006101000a81548173ffffffffffffffffffffffffffffffffffffffff021916908373ffffffffffffffffffffffffffffffffffffffff16021790555080600281905550600160009054906101000a900473ffffffffffffffffffffffffffffffffffffffff1673ffffffffffffffffffffffffffffffffffffffff16639c1121416002546014306040518463ffffffff1660e01b81526004016200010393929190620002ad565b600060405180830381600087803b1580156200011e57600080fd5b505af115801562000133573d6000803e3d6000fd5b50505050505062000370565b600033905090565b60008060009054906101000a900473ffffffffffffffffffffffffffffffffffffffff169050816000806101000a81548173ffffffffffffffffffffffffffffffffffffffff021916908373ffffffffffffffffffffffffffffffffffffffff1602179055508173ffffffffffffffffffffffffffffffffffffffff168173ffffffffffffffffffffffffffffffffffffffff167f8be0079c531659141344cd1fd0a4f28419497f9722a3daafe3b4186f6b6457e060405160405180910390a35050565b6000815190506200021c816200033c565b92915050565b600081519050620002338162000356565b92915050565b600080604083850312156200024d57600080fd5b60006200025d858286016200020b565b9250506020620002708582860162000222565b9150509250929050565b6200028581620002ea565b82525050565b620002968162000328565b82525050565b620002a7816200031e565b82525050565b6000606082019050620002c460008301866200029c565b620002d360208301856200028b565b620002e260408301846200027a565b949350505050565b6000620002f782620002fe565b9050919050565b600073ffffffffffffffffffffffffffffffffffffffff82169050919050565b6000819050919050565b600062000335826200031e565b9050919050565b6200034781620002ea565b81146200035357600080fd5b50565b62000361816200031e565b81146200036d57600080fd5b50565b610e8c80620003806000396000f3fe608060405234801561001057600080fd5b50600436106100885760003560e01c80638da5cb5b1161005b5780638da5cb5b14610101578063a0f44c921461011f578063eed02e4b1461013d578063f2fde38b1461015957610088565b8063566797a91461008d578063645ce07c146100a9578063715018a6146100d95780637b5d2534146100e3575b600080fd5b6100a760048036038101906100a29190610849565b610175565b005b6100c360048036038101906100be9190610820565b610331565b6040516100d09190610a97565b60405180910390f35b6100e16103d1565b005b6100eb6103e5565b6040516100f89190610a7c565b60405180910390f35b61010961040b565b6040516101169190610a61565b60405180910390f35b610127610434565b6040516101349190610af9565b60405180910390f35b61015760048036038101906101529190610820565b61043a565b005b610173600480360381019061016e91906107f7565b6104d6565b005b6000816040516020016101889190610a97565b6040516020818303038152906040528051906020012060001c90506040518060200160405280600081525080519060200120600360008381526020019081526020016000206040516101da9190610a33565b6040518091039020146101ec57600080fd5b816003600083815260200190815260200160002090805190602001906102139291906106a4565b50600160009054906101000a900473ffffffffffffffffffffffffffffffffffffffff1673ffffffffffffffffffffffffffffffffffffffff16633bc778e360025487848886896040518763ffffffff1660e01b815260040161027b96959493929190610b3d565b600060405180830381600087803b15801561029557600080fd5b505af11580156102a9573d6000803e3d6000fd5b505050508180519060200120600360008381526020019081526020016000206040516102d59190610a33565b6040518091039020146102e757600080fd5b816040516102f59190610a4a565b6040518091039020817ffb4beb162f38c53cf549c8d08c382f555743cb14a05555a7892399d6a97ec73460405160405180910390a35050505050565b6003602052806000526040600020600091509050805461035090610cde565b80601f016020809104026020016040519081016040528092919081815260200182805461037c90610cde565b80156103c95780601f1061039e576101008083540402835291602001916103c9565b820191906000526020600020905b8154815290600101906020018083116103ac57829003601f168201915b505050505081565b6103d961055a565b6103e360006105d8565b565b600160009054906101000a900473ffffffffffffffffffffffffffffffffffffffff1681565b60008060009054906101000a900473ffffffffffffffffffffffffffffffffffffffff16905090565b60025481565b61044261055a565b600160009054906101000a900473ffffffffffffffffffffffffffffffffffffffff1673ffffffffffffffffffffffffffffffffffffffff16631783efc3600254836040518363ffffffff1660e01b81526004016104a1929190610b14565b600060405180830381600087803b1580156104bb57600080fd5b505af11580156104cf573d6000803e3d6000fd5b5050505050565b6104de61055a565b600073ffffffffffffffffffffffffffffffffffffffff168173ffffffffffffffffffffffffffffffffffffffff16141561054e576040517f08c379a000000000000000000000000000000000000000000000000000000000815260040161054590610ab9565b60405180910390fd5b610557816105d8565b50565b61056261069c565b73ffffffffffffffffffffffffffffffffffffffff1661058061040b565b73ffffffffffffffffffffffffffffffffffffffff16146105d6576040517f08c379a00000000000000000000000000000000000000000000000000000000081526004016105cd90610ad9565b60405180910390fd5b565b60008060009054906101000a900473ffffffffffffffffffffffffffffffffffffffff169050816000806101000a81548173ffffffffffffffffffffffffffffffffffffffff021916908373ffffffffffffffffffffffffffffffffffffffff1602179055508173ffffffffffffffffffffffffffffffffffffffff168173ffffffffffffffffffffffffffffffffffffffff167f8be0079c531659141344cd1fd0a4f28419497f9722a3daafe3b4186f6b6457e060405160405180910390a35050565b600033905090565b8280546106b090610cde565b90600052602060002090601f0160209004810192826106d25760008555610719565b82601f106106eb57805160ff1916838001178555610719565b82800160010185558215610719579182015b828111156107185782518255916020019190600101906106fd565b5b509050610726919061072a565b5090565b5b8082111561074357600081600090555060010161072b565b5090565b600061075a61075584610bc4565b610b9f565b90508281526020810184848401111561077257600080fd5b61077d848285610c9c565b509392505050565b60008135905061079481610e28565b92915050565b6000819050826020600802820111156107b257600080fd5b92915050565b600082601f8301126107c957600080fd5b81356107d9848260208601610747565b91505092915050565b6000813590506107f181610e3f565b92915050565b60006020828403121561080957600080fd5b600061081784828501610785565b91505092915050565b60006020828403121561083257600080fd5b6000610840848285016107e2565b91505092915050565b600080600080610160858703121561086057600080fd5b600061086e878288016107e2565b945050602061087f878288016107e2565b93505060406108908782880161079a565b92505061014085013567ffffffffffffffff8111156108ae57600080fd5b6108ba878288016107b8565b91505092959194509250565b6108cf81610c3c565b82525050565b6108e26101008383610c9c565b5050565b600081546108f381610cde565b6108fd8186610c15565b9450600182166000811461091857600181146109295761095c565b60ff1983168652818601935061095c565b61093285610bf5565b60005b8381101561095457815481890152600182019150602081019050610935565b838801955050505b50505092915050565b61096e81610c78565b82525050565b600061097f82610c0a565b6109898185610c20565b9350610999818560208601610cab565b6109a281610d9f565b840191505092915050565b60006109b882610c0a565b6109c28185610c31565b93506109d2818560208601610cab565b80840191505092915050565b60006109eb602683610c20565b91506109f682610db0565b604082019050919050565b6000610a0e602083610c20565b9150610a1982610dff565b602082019050919050565b610a2d81610c6e565b82525050565b6000610a3f82846108e6565b915081905092915050565b6000610a5682846109ad565b915081905092915050565b6000602082019050610a7660008301846108c6565b92915050565b6000602082019050610a916000830184610965565b92915050565b60006020820190508181036000830152610ab18184610974565b905092915050565b60006020820190508181036000830152610ad2816109de565b9050919050565b60006020820190508181036000830152610af281610a01565b9050919050565b6000602082019050610b0e6000830184610a24565b92915050565b6000604082019050610b296000830185610a24565b610b366020830184610a24565b9392505050565b60006101a082019050610b536000830189610a24565b610b606020830188610a24565b610b6d6040830187610a24565b610b7a6060830186610a24565b610b876080830185610a24565b610b9460a08301846108d5565b979650505050505050565b6000610ba9610bba565b9050610bb58282610d10565b919050565b6000604051905090565b600067ffffffffffffffff821115610bdf57610bde610d70565b5b610be882610d9f565b9050602081019050919050565b60008190508160005260206000209050919050565b600081519050919050565b600081905092915050565b600082825260208201905092915050565b600081905092915050565b6000610c4782610c4e565b9050919050565b600073ffffffffffffffffffffffffffffffffffffffff82169050919050565b6000819050919050565b6000610c8382610c8a565b9050919050565b6000610c9582610c4e565b9050919050565b82818337600083830152505050565b60005b83811015610cc9578082015181840152602081019050610cae565b83811115610cd8576000848401525b50505050565b60006002820490506001821680610cf657607f821691505b60208210811415610d0a57610d09610d41565b5b50919050565b610d1982610d9f565b810181811067ffffffffffffffff82111715610d3857610d37610d70565b5b80604052505050565b7f4e487b7100000000000000000000000000000000000000000000000000000000600052602260045260246000fd5b7f4e487b7100000000000000000000000000000000000000000000000000000000600052604160045260246000fd5b6000601f19601f8301169050919050565b7f4f776e61626c653a206e6577206f776e657220697320746865207a65726f206160008201527f6464726573730000000000000000000000000000000000000000000000000000602082015250565b7f4f776e61626c653a2063616c6c6572206973206e6f7420746865206f776e6572600082015250565b610e3181610c3c565b8114610e3c57600080fd5b50565b610e4881610c6e565b8114610e5357600080fd5b5056fea2646970667358221220b11473d8bb0ad9f183851fdcaee502444d0c4dcda921c495c41bff997f6a469664736f6c63430008040033",
  "linkReferences": {},
  "deployedLinkReferences": {}
}